{
  "_format": "hh-sol-artifact-1",
  "contractName": "GrowthUP",
  "sourceName": "contracts/GrowthUP.sol",
  "abi": [
    {
      "inputs": [
        {
          "internalType": "address",
          "name": "_defaultAdmin",
          "type": "address"
        },
        {
          "internalType": "string",
          "name": "_name",
          "type": "string"
        },
        {
          "internalType": "string",
          "name": "_symbol",
          "type": "string"
        },
        {
          "internalType": "address",
          "name": "_token",
          "type": "address"
        },
        {
          "internalType": "uint256",
          "name": "_initialVotingDelay",
          "type": "uint256"
        },
        {
          "internalType": "uint256",
          "name": "_initialVotingPeriod",
          "type": "uint256"
        }
      ],
      "stateMutability": "nonpayable",
      "type": "constructor"
    },
    {
      "anonymous": false,
      "inputs": [
        {
          "indexed": true,
          "internalType": "address",
          "name": "owner",
          "type": "address"
        },
        {
          "indexed": true,
          "internalType": "address",
          "name": "spender",
          "type": "address"
        },
        {
          "indexed": false,
          "internalType": "uint256",
          "name": "value",
          "type": "uint256"
        }
      ],
      "name": "Approval",
      "type": "event"
    },
    {
      "anonymous": false,
      "inputs": [
        {
          "indexed": false,
          "internalType": "string",
          "name": "prevURI",
          "type": "string"
        },
        {
          "indexed": false,
          "internalType": "string",
          "name": "newURI",
          "type": "string"
        }
      ],
      "name": "ContractURIUpdated",
      "type": "event"
    },
    {
      "anonymous": false,
      "inputs": [
        {
          "indexed": true,
          "internalType": "address",
          "name": "delegator",
          "type": "address"
        },
        {
          "indexed": true,
          "internalType": "address",
          "name": "fromDelegate",
          "type": "address"
        },
        {
          "indexed": true,
          "internalType": "address",
          "name": "toDelegate",
          "type": "address"
        }
      ],
      "name": "DelegateChanged",
      "type": "event"
    },
    {
      "anonymous": false,
      "inputs": [
        {
          "indexed": true,
          "internalType": "address",
          "name": "delegate",
          "type": "address"
        },
        {
          "indexed": false,
          "internalType": "uint256",
          "name": "previousBalance",
          "type": "uint256"
        },
        {
          "indexed": false,
          "internalType": "uint256",
          "name": "newBalance",
          "type": "uint256"
        }
      ],
      "name": "DelegateVotesChanged",
      "type": "event"
    },
    {
      "anonymous": false,
      "inputs": [
        {
          "indexed": true,
          "internalType": "address",
          "name": "prevOwner",
          "type": "address"
        },
        {
          "indexed": true,
          "internalType": "address",
          "name": "newOwner",
          "type": "address"
        }
      ],
      "name": "OwnerUpdated",
      "type": "event"
    },
    {
      "anonymous": false,
      "inputs": [
        {
          "indexed": true,
          "internalType": "address",
          "name": "mintedTo",
          "type": "address"
        },
        {
          "indexed": false,
          "internalType": "uint256",
          "name": "quantityMinted",
          "type": "uint256"
        }
      ],
      "name": "TokensMinted",
      "type": "event"
    },
    {
      "anonymous": false,
      "inputs": [
        {
          "indexed": true,
          "internalType": "address",
          "name": "from",
          "type": "address"
        },
        {
          "indexed": true,
          "internalType": "address",
          "name": "to",
          "type": "address"
        },
        {
          "indexed": false,
          "internalType": "uint256",
          "name": "value",
          "type": "uint256"
        }
      ],
      "name": "Transfer",
      "type": "event"
    },
    {
      "inputs": [],
      "name": "DOMAIN_SEPARATOR",
      "outputs": [
        {
          "internalType": "bytes32",
          "name": "",
          "type": "bytes32"
        }
      ],
      "stateMutability": "view",
      "type": "function"
    },
    {
      "inputs": [
        {
          "internalType": "address",
          "name": "owner",
          "type": "address"
        },
        {
          "internalType": "address",
          "name": "spender",
          "type": "address"
        }
      ],
      "name": "allowance",
      "outputs": [
        {
          "internalType": "uint256",
          "name": "",
          "type": "uint256"
        }
      ],
      "stateMutability": "view",
      "type": "function"
    },
    {
      "inputs": [
        {
          "internalType": "address",
          "name": "spender",
          "type": "address"
        },
        {
          "internalType": "uint256",
          "name": "amount",
          "type": "uint256"
        }
      ],
      "name": "approve",
      "outputs": [
        {
          "internalType": "bool",
          "name": "",
          "type": "bool"
        }
      ],
      "stateMutability": "nonpayable",
      "type": "function"
    },
    {
      "inputs": [
        {
          "internalType": "address",
          "name": "account",
          "type": "address"
        }
      ],
      "name": "balanceOf",
      "outputs": [
        {
          "internalType": "uint256",
          "name": "",
          "type": "uint256"
        }
      ],
      "stateMutability": "view",
      "type": "function"
    },
    {
      "inputs": [
        {
          "internalType": "uint256",
          "name": "_amount",
          "type": "uint256"
        }
      ],
      "name": "burn",
      "outputs": [],
      "stateMutability": "nonpayable",
      "type": "function"
    },
    {
      "inputs": [
        {
          "internalType": "address",
          "name": "_account",
          "type": "address"
        },
        {
          "internalType": "uint256",
          "name": "_amount",
          "type": "uint256"
        }
      ],
      "name": "burnFrom",
      "outputs": [],
      "stateMutability": "nonpayable",
      "type": "function"
    },
    {
      "inputs": [
        {
          "internalType": "address",
          "name": "account",
          "type": "address"
        },
        {
          "internalType": "uint32",
          "name": "pos",
          "type": "uint32"
        }
      ],
      "name": "checkpoints",
      "outputs": [
        {
          "components": [
            {
              "internalType": "uint32",
              "name": "fromBlock",
              "type": "uint32"
            },
            {
              "internalType": "uint224",
              "name": "votes",
              "type": "uint224"
            }
          ],
          "internalType": "struct ERC20Votes.Checkpoint",
          "name": "",
          "type": "tuple"
        }
      ],
      "stateMutability": "view",
      "type": "function"
    },
    {
      "inputs": [],
      "name": "contractType",
      "outputs": [
        {
          "internalType": "bytes32",
          "name": "",
          "type": "bytes32"
        }
      ],
      "stateMutability": "pure",
      "type": "function"
    },
    {
      "inputs": [],
      "name": "contractURI",
      "outputs": [
        {
          "internalType": "string",
          "name": "",
          "type": "string"
        }
      ],
      "stateMutability": "view",
      "type": "function"
    },
    {
      "inputs": [],
      "name": "contractVersion",
      "outputs": [
        {
          "internalType": "uint8",
          "name": "",
          "type": "uint8"
        }
      ],
      "stateMutability": "pure",
      "type": "function"
    },
    {
      "inputs": [],
      "name": "decimals",
      "outputs": [
        {
          "internalType": "uint8",
          "name": "",
          "type": "uint8"
        }
      ],
      "stateMutability": "view",
      "type": "function"
    },
    {
      "inputs": [
        {
          "internalType": "address",
          "name": "spender",
          "type": "address"
        },
        {
          "internalType": "uint256",
          "name": "subtractedValue",
          "type": "uint256"
        }
      ],
      "name": "decreaseAllowance",
      "outputs": [
        {
          "internalType": "bool",
          "name": "",
          "type": "bool"
        }
      ],
      "stateMutability": "nonpayable",
      "type": "function"
    },
    {
      "inputs": [
        {
          "internalType": "address",
          "name": "delegatee",
          "type": "address"
        }
      ],
      "name": "delegate",
      "outputs": [],
      "stateMutability": "nonpayable",
      "type": "function"
    },
    {
      "inputs": [
        {
          "internalType": "address",
          "name": "delegatee",
          "type": "address"
        },
        {
          "internalType": "uint256",
          "name": "nonce",
          "type": "uint256"
        },
        {
          "internalType": "uint256",
          "name": "expiry",
          "type": "uint256"
        },
        {
          "internalType": "uint8",
          "name": "v",
          "type": "uint8"
        },
        {
          "internalType": "bytes32",
          "name": "r",
          "type": "bytes32"
        },
        {
          "internalType": "bytes32",
          "name": "s",
          "type": "bytes32"
        }
      ],
      "name": "delegateBySig",
      "outputs": [],
      "stateMutability": "nonpayable",
      "type": "function"
    },
    {
      "inputs": [
        {
          "internalType": "address",
          "name": "account",
          "type": "address"
        }
      ],
      "name": "delegates",
      "outputs": [
        {
          "internalType": "address",
          "name": "",
          "type": "address"
        }
      ],
      "stateMutability": "view",
      "type": "function"
    },
    {
      "inputs": [],
      "name": "getAllPreProposals",
      "outputs": [
        {
          "internalType": "uint8",
          "name": "",
          "type": "uint8"
        }
      ],
      "stateMutability": "pure",
      "type": "function"
    },
    {
      "inputs": [],
      "name": "getAllProposals",
      "outputs": [
        {
          "internalType": "uint8",
          "name": "",
          "type": "uint8"
        }
      ],
      "stateMutability": "pure",
      "type": "function"
    },
    {
      "inputs": [
        {
          "internalType": "uint256",
          "name": "blockNumber",
          "type": "uint256"
        }
      ],
      "name": "getPastTotalSupply",
      "outputs": [
        {
          "internalType": "uint256",
          "name": "",
          "type": "uint256"
        }
      ],
      "stateMutability": "view",
      "type": "function"
    },
    {
      "inputs": [
        {
          "internalType": "address",
          "name": "account",
          "type": "address"
        },
        {
          "internalType": "uint256",
          "name": "blockNumber",
          "type": "uint256"
        }
      ],
      "name": "getPastVotes",
      "outputs": [
        {
          "internalType": "uint256",
          "name": "",
          "type": "uint256"
        }
      ],
      "stateMutability": "view",
      "type": "function"
    },
    {
      "inputs": [
        {
          "internalType": "uint256",
          "name": "proposalId",
          "type": "uint256"
        }
      ],
      "name": "getPreProposal",
      "outputs": [
        {
          "internalType": "uint256",
          "name": "",
          "type": "uint256"
        }
      ],
      "stateMutability": "pure",
      "type": "function"
    },
    {
      "inputs": [
        {
          "internalType": "uint256",
          "name": "proposalId",
          "type": "uint256"
        }
      ],
      "name": "getProposal",
      "outputs": [
        {
          "internalType": "uint256",
          "name": "",
          "type": "uint256"
        }
      ],
      "stateMutability": "pure",
      "type": "function"
    },
    {
      "inputs": [
        {
          "internalType": "address",
          "name": "account",
          "type": "address"
        }
      ],
      "name": "getVotes",
      "outputs": [
        {
          "internalType": "uint256",
          "name": "",
          "type": "uint256"
        }
      ],
      "stateMutability": "view",
      "type": "function"
    },
    {
      "inputs": [
        {
          "internalType": "address",
          "name": "spender",
          "type": "address"
        },
        {
          "internalType": "uint256",
          "name": "addedValue",
          "type": "uint256"
        }
      ],
      "name": "increaseAllowance",
      "outputs": [
        {
          "internalType": "bool",
          "name": "",
          "type": "bool"
        }
      ],
      "stateMutability": "nonpayable",
      "type": "function"
    },
    {
      "inputs": [
        {
          "internalType": "address",
          "name": "_to",
          "type": "address"
        },
        {
          "internalType": "uint256",
          "name": "_amount",
          "type": "uint256"
        }
      ],
      "name": "mintTo",
      "outputs": [],
      "stateMutability": "nonpayable",
      "type": "function"
    },
    {
      "inputs": [
        {
          "internalType": "bytes[]",
          "name": "data",
          "type": "bytes[]"
        }
      ],
      "name": "multicall",
      "outputs": [
        {
          "internalType": "bytes[]",
          "name": "results",
          "type": "bytes[]"
        }
      ],
      "stateMutability": "nonpayable",
      "type": "function"
    },
    {
      "inputs": [],
      "name": "name",
      "outputs": [
        {
          "internalType": "string",
          "name": "",
          "type": "string"
        }
      ],
      "stateMutability": "view",
      "type": "function"
    },
    {
      "inputs": [
        {
          "internalType": "address",
          "name": "owner",
          "type": "address"
        }
      ],
      "name": "nonces",
      "outputs": [
        {
          "internalType": "uint256",
          "name": "",
          "type": "uint256"
        }
      ],
      "stateMutability": "view",
      "type": "function"
    },
    {
      "inputs": [
        {
          "internalType": "address",
          "name": "account",
          "type": "address"
        }
      ],
      "name": "numCheckpoints",
      "outputs": [
        {
          "internalType": "uint32",
          "name": "",
          "type": "uint32"
        }
      ],
      "stateMutability": "view",
      "type": "function"
    },
    {
      "inputs": [],
      "name": "owner",
      "outputs": [
        {
          "internalType": "address",
          "name": "",
          "type": "address"
        }
      ],
      "stateMutability": "view",
      "type": "function"
    },
    {
      "inputs": [
        {
          "internalType": "address",
          "name": "owner",
          "type": "address"
        },
        {
          "internalType": "address",
          "name": "spender",
          "type": "address"
        },
        {
          "internalType": "uint256",
          "name": "value",
          "type": "uint256"
        },
        {
          "internalType": "uint256",
          "name": "deadline",
          "type": "uint256"
        },
        {
          "internalType": "uint8",
          "name": "v",
          "type": "uint8"
        },
        {
          "internalType": "bytes32",
          "name": "r",
          "type": "bytes32"
        },
        {
          "internalType": "bytes32",
          "name": "s",
          "type": "bytes32"
        }
      ],
      "name": "permit",
      "outputs": [],
      "stateMutability": "nonpayable",
      "type": "function"
    },
    {
      "inputs": [],
      "name": "preProposal",
      "outputs": [
        {
          "internalType": "uint8",
          "name": "",
          "type": "uint8"
        }
      ],
      "stateMutability": "pure",
      "type": "function"
    },
    {
      "inputs": [
        {
          "internalType": "uint256",
          "name": "",
          "type": "uint256"
        }
      ],
      "name": "preProposals",
      "outputs": [
        {
          "internalType": "uint256",
          "name": "proposalId",
          "type": "uint256"
        },
        {
          "internalType": "address",
          "name": "proposer",
          "type": "address"
        },
        {
          "internalType": "uint256",
          "name": "startBlock",
          "type": "uint256"
        },
        {
          "internalType": "uint256",
          "name": "endBlock",
          "type": "uint256"
        },
        {
          "internalType": "string",
          "name": "description",
          "type": "string"
        }
      ],
      "stateMutability": "view",
      "type": "function"
    },
    {
      "inputs": [],
      "name": "proposal",
      "outputs": [
        {
          "internalType": "uint8",
          "name": "",
          "type": "uint8"
        }
      ],
      "stateMutability": "pure",
      "type": "function"
    },
    {
      "inputs": [
        {
          "internalType": "uint256",
          "name": "",
          "type": "uint256"
        }
      ],
      "name": "proposals",
      "outputs": [
        {
          "internalType": "uint256",
          "name": "proposalId",
          "type": "uint256"
        },
        {
          "internalType": "address",
          "name": "proposer",
          "type": "address"
        },
        {
          "internalType": "uint256",
          "name": "startBlock",
          "type": "uint256"
        },
        {
          "internalType": "uint256",
          "name": "endBlock",
          "type": "uint256"
        },
        {
          "internalType": "string",
          "name": "description",
          "type": "string"
        }
      ],
      "stateMutability": "view",
      "type": "function"
    },
    {
      "inputs": [
        {
          "internalType": "string",
          "name": "_uri",
          "type": "string"
        }
      ],
      "name": "setContractURI",
      "outputs": [],
      "stateMutability": "nonpayable",
      "type": "function"
    },
    {
      "inputs": [
        {
          "internalType": "address",
          "name": "_newOwner",
          "type": "address"
        }
      ],
      "name": "setOwner",
      "outputs": [],
      "stateMutability": "nonpayable",
      "type": "function"
    },
    {
      "inputs": [],
      "name": "symbol",
      "outputs": [
        {
          "internalType": "string",
          "name": "",
          "type": "string"
        }
      ],
      "stateMutability": "view",
      "type": "function"
    },
    {
      "inputs": [],
      "name": "totalSupply",
      "outputs": [
        {
          "internalType": "uint256",
          "name": "",
          "type": "uint256"
        }
      ],
      "stateMutability": "view",
      "type": "function"
    },
    {
      "inputs": [
        {
          "internalType": "address",
          "name": "to",
          "type": "address"
        },
        {
          "internalType": "uint256",
          "name": "amount",
          "type": "uint256"
        }
      ],
      "name": "transfer",
      "outputs": [
        {
          "internalType": "bool",
          "name": "",
          "type": "bool"
        }
      ],
      "stateMutability": "nonpayable",
      "type": "function"
    },
    {
      "inputs": [
        {
          "internalType": "address",
          "name": "from",
          "type": "address"
        },
        {
          "internalType": "address",
          "name": "to",
          "type": "address"
        },
        {
          "internalType": "uint256",
          "name": "amount",
          "type": "uint256"
        }
      ],
      "name": "transferFrom",
      "outputs": [
        {
          "internalType": "bool",
          "name": "",
          "type": "bool"
        }
      ],
      "stateMutability": "nonpayable",
      "type": "function"
    },
    {
      "inputs": [],
      "name": "votePreProposal",
      "outputs": [
        {
          "internalType": "uint8",
          "name": "",
          "type": "uint8"
        }
      ],
      "stateMutability": "pure",
      "type": "function"
    },
    {
      "inputs": [],
      "name": "voteProposal",
      "outputs": [
        {
          "internalType": "uint8",
          "name": "",
          "type": "uint8"
        }
      ],
      "stateMutability": "pure",
      "type": "function"
    }
  ],
  "bytecode": "0x6101006040527f6e71edae12b1b97f4d1f60370fef10105fa2faae0126114a169c64845d6126c960e0908152503480156200003957600080fd5b5060405162005bf938038062005bf983398181016040528101906200005f919062000571565b8585858181818181600590816200007791906200088c565b5080600690816200008991906200088c565b5050504660a081815250503073ffffffffffffffffffffffffffffffffffffffff1660c08173ffffffffffffffffffffffffffffffffffffffff1681525050620000d86200015060201b60201c565b608081815250505050620000f283620001de60201b60201c565b50505082600b60006101000a81548173ffffffffffffffffffffffffffffffffffffffff021916908373ffffffffffffffffffffffffffffffffffffffff16021790555081600c8190555080600d8190555050505050505062000a0d565b60007f8b73c3c69bb8fe3d512ecc4cf759cc79239f7b179b0ffacaa9a75d522b39400f62000183620002a460201b60201c565b805190602001207fc89efdaa54c0f20c7adf612882df0950f5a951637e0307cdcb4c672f298b8bc64630604051602001620001c3959493929190620009b0565b60405160208183030381529060405280519060200120905090565b6000600160009054906101000a900473ffffffffffffffffffffffffffffffffffffffff16905081600160006101000a81548173ffffffffffffffffffffffffffffffffffffffff021916908373ffffffffffffffffffffffffffffffffffffffff1602179055508173ffffffffffffffffffffffffffffffffffffffff168173ffffffffffffffffffffffffffffffffffffffff167f8292fce18fa69edf4db7b94ea2e58241df0ae57f97e0a6c9b29067028bf92d7660405160405180910390a35050565b606060058054620002b59062000685565b80601f0160208091040260200160405190810160405280929190818152602001828054620002e39062000685565b8015620003345780601f10620003085761010080835404028352916020019162000334565b820191906000526020600020905b8154815290600101906020018083116200031657829003601f168201915b5050505050905090565b6000604051905090565b600080fd5b600080fd5b600073ffffffffffffffffffffffffffffffffffffffff82169050919050565b60006200037f8262000352565b9050919050565b620003918162000372565b81146200039d57600080fd5b50565b600081519050620003b18162000386565b92915050565b600080fd5b600080fd5b6000601f19601f8301169050919050565b7f4e487b7100000000000000000000000000000000000000000000000000000000600052604160045260246000fd5b6200040c82620003c1565b810181811067ffffffffffffffff821117156200042e576200042d620003d2565b5b80604052505050565b6000620004436200033e565b905062000451828262000401565b919050565b600067ffffffffffffffff821115620004745762000473620003d2565b5b6200047f82620003c1565b9050602081019050919050565b60005b83811015620004ac5780820151818401526020810190506200048f565b60008484015250505050565b6000620004cf620004c98462000456565b62000437565b905082815260208101848484011115620004ee57620004ed620003bc565b5b620004fb8482856200048c565b509392505050565b600082601f8301126200051b576200051a620003b7565b5b81516200052d848260208601620004b8565b91505092915050565b6000819050919050565b6200054b8162000536565b81146200055757600080fd5b50565b6000815190506200056b8162000540565b92915050565b60008060008060008060c0878903121562000591576200059062000348565b5b6000620005a189828a01620003a0565b965050602087015167ffffffffffffffff811115620005c557620005c46200034d565b5b620005d389828a0162000503565b955050604087015167ffffffffffffffff811115620005f757620005f66200034d565b5b6200060589828a0162000503565b94505060606200061889828a01620003a0565b93505060806200062b89828a016200055a565b92505060a06200063e89828a016200055a565b9150509295509295509295565b600081519050919050565b7f4e487b7100000000000000000000000000000000000000000000000000000000600052602260045260246000fd5b600060028204905060018216806200069e57607f821691505b602082108103620006b457620006b362000656565b5b50919050565b60008190508160005260206000209050919050565b60006020601f8301049050919050565b600082821b905092915050565b6000600883026200071e7fffffffffffffffffffffffffffffffffffffffffffffffffffffffffffffffff82620006df565b6200072a8683620006df565b95508019841693508086168417925050509392505050565b6000819050919050565b60006200076d62000767620007618462000536565b62000742565b62000536565b9050919050565b6000819050919050565b62000789836200074c565b620007a1620007988262000774565b848454620006ec565b825550505050565b600090565b620007b8620007a9565b620007c58184846200077e565b505050565b5b81811015620007ed57620007e1600082620007ae565b600181019050620007cb565b5050565b601f8211156200083c576200080681620006ba565b6200081184620006cf565b8101602085101562000821578190505b620008396200083085620006cf565b830182620007ca565b50505b505050565b600082821c905092915050565b6000620008616000198460080262000841565b1980831691505092915050565b60006200087c83836200084e565b9150826002028217905092915050565b62000897826200064b565b67ffffffffffffffff811115620008b357620008b2620003d2565b5b620008bf825462000685565b620008cc828285620007f1565b600060209050601f831160018114620009045760008415620008ef578287015190505b620008fb85826200086e565b8655506200096b565b601f1984166200091486620006ba565b60005b828110156200093e5784890151825560018201915060208501945060208101905062000917565b868310156200095e57848901516200095a601f8916826200084e565b8355505b6001600288020188555050505b505050505050565b6000819050919050565b620009888162000973565b82525050565b620009998162000536565b82525050565b620009aa8162000372565b82525050565b600060a082019050620009c760008301886200097d565b620009d660208301876200097d565b620009e560408301866200097d565b620009f460608301856200098e565b62000a0360808301846200099f565b9695505050505050565b60805160a05160c05160e0516151b262000a47600039600061173301526000610bb001526000610c0601526000610c2f01526151b26000f3fe608060405234801561001057600080fd5b506004361061025e5760003560e01c80637ecebe0011610146578063a9059cbb116100c3578063cb2ef6f711610087578063cb2ef6f7146107c7578063cceb68f5146107e5578063d505accf14610803578063dd62ed3e1461081f578063e8a3d4851461084f578063f1127ed81461086d5761025e565b8063a9059cbb146106fd578063ac9650d81461072d578063bf51c7f21461075d578063c3cda5201461077b578063c7f758a8146107975761025e565b806395d89b411161010a57806395d89b411461064357806396888480146106615780639ab24eb01461067f578063a0a8e460146106af578063a457c2d7146106cd5761025e565b80637ecebe001461058b5780638351739a146105bb5780638da5cb5b146105d95780638e539e8c146105f7578063938e3d7b146106275761025e565b806339509351116101df578063587cde1e116101a3578063587cde1e146104a55780635c19a95c146104d55780636fcfff45146104f157806370a0823114610521578063753ec1031461055157806379cc67901461056f5761025e565b806339509351146103dd5780633a46b1a81461040d57806342966c681461043d578063449a52f8146104595780635695aa7e146104755761025e565b80631e9d5773116102265780631e9d57731461031f57806323b872dd1461033d578063313ce5671461036d578063316b96461461038b5780633644e515146103bf5761025e565b8063013cf08b1461026357806306fdde0314610297578063095ea7b3146102b557806313af4035146102e557806318160ddd14610301575b600080fd5b61027d60048036038101906102789190613378565b61089d565b60405161028e959493929190613485565b60405180910390f35b61029f61097b565b6040516102ac91906134df565b60405180910390f35b6102cf60048036038101906102ca919061352d565b610a0d565b6040516102dc9190613588565b60405180910390f35b6102ff60048036038101906102fa91906135a3565b610a30565b005b610309610a83565b60405161031691906135d0565b60405180910390f35b610327610a8d565b6040516103349190613607565b60405180910390f35b61035760048036038101906103529190613622565b610a96565b6040516103649190613588565b60405180910390f35b610375610ac5565b6040516103829190613607565b60405180910390f35b6103a560048036038101906103a09190613378565b610ace565b6040516103b6959493929190613485565b60405180910390f35b6103c7610bac565b6040516103d4919061368e565b60405180910390f35b6103f760048036038101906103f2919061352d565b610c63565b6040516104049190613588565b60405180910390f35b6104276004803603810190610422919061352d565b610d0d565b60405161043491906135d0565b60405180910390f35b61045760048036038101906104529190613378565b610da1565b005b610473600480360381019061046e919061352d565b610e00565b005b61048f600480360381019061048a9190613378565b610e98565b60405161049c91906135d0565b60405180910390f35b6104bf60048036038101906104ba91906135a3565b610ea2565b6040516104cc91906136a9565b60405180910390f35b6104ef60048036038101906104ea91906135a3565b610f0b565b005b61050b600480360381019061050691906135a3565b610f1f565b60405161051891906136e3565b60405180910390f35b61053b600480360381019061053691906135a3565b610f73565b60405161054891906135d0565b60405180910390f35b610559610fbc565b6040516105669190613607565b60405180910390f35b6105896004803603810190610584919061352d565b610fc5565b005b6105a560048036038101906105a091906135a3565b611096565b6040516105b291906135d0565b60405180910390f35b6105c36110e6565b6040516105d09190613607565b60405180910390f35b6105e16110ef565b6040516105ee91906136a9565b60405180910390f35b610611600480360381019061060c9190613378565b611119565b60405161061e91906135d0565b60405180910390f35b610641600480360381019061063c9190613833565b61116f565b005b61064b6111c2565b60405161065891906134df565b60405180910390f35b610669611254565b6040516106769190613607565b60405180910390f35b610699600480360381019061069491906135a3565b61125d565b6040516106a691906135d0565b60405180910390f35b6106b761136e565b6040516106c49190613607565b60405180910390f35b6106e760048036038101906106e2919061352d565b611377565b6040516106f49190613588565b60405180910390f35b6107176004803603810190610712919061352d565b611461565b6040516107249190613588565b60405180910390f35b610747600480360381019061074291906138dc565b611484565b6040516107549190613a40565b60405180910390f35b610765611590565b6040516107729190613607565b60405180910390f35b61079560048036038101906107909190613aba565b611599565b005b6107b160048036038101906107ac9190613378565b6116b1565b6040516107be91906135d0565b60405180910390f35b6107cf6116bb565b6040516107dc919061368e565b60405180910390f35b6107ed6116e3565b6040516107fa9190613607565b60405180910390f35b61081d60048036038101906108189190613b47565b6116ec565b005b61083960048036038101906108349190613be9565b611836565b60405161084691906135d0565b60405180910390f35b6108576118bd565b60405161086491906134df565b60405180910390f35b61088760048036038101906108829190613c55565b61194b565b6040516108949190613d0a565b60405180910390f35b600f6020528060005260406000206000915090508060000154908060010160009054906101000a900473ffffffffffffffffffffffffffffffffffffffff16908060060154908060070154908060080180546108f890613d54565b80601f016020809104026020016040519081016040528092919081815260200182805461092490613d54565b80156109715780601f1061094657610100808354040283529160200191610971565b820191906000526020600020905b81548152906001019060200180831161095457829003601f168201915b5050505050905085565b60606005805461098a90613d54565b80601f01602080910402602001604051908101604052809291908181526020018280546109b690613d54565b8015610a035780601f106109d857610100808354040283529160200191610a03565b820191906000526020600020905b8154815290600101906020018083116109e657829003601f168201915b5050505050905090565b600080610a18611a5b565b9050610a25818585611a63565b600191505092915050565b610a38611c2c565b610a77576040517f08c379a0000000000000000000000000000000000000000000000000000000008152600401610a6e90613dd1565b60405180910390fd5b610a8081611c69565b50565b6000600454905090565b60006001905090565b600080610aa1611a5b565b9050610aae858285611d2f565b610ab9858585611dbb565b60019150509392505050565b60006012905090565b600e6020528060005260406000206000915090508060000154908060010160009054906101000a900473ffffffffffffffffffffffffffffffffffffffff1690806006015490806007015490806008018054610b2990613d54565b80601f0160208091040260200160405190810160405280929190818152602001828054610b5590613d54565b8015610ba25780601f10610b7757610100808354040283529160200191610ba2565b820191906000526020600020905b815481529060010190602001808311610b8557829003601f168201915b5050505050905085565b60007f000000000000000000000000000000000000000000000000000000000000000073ffffffffffffffffffffffffffffffffffffffff163073ffffffffffffffffffffffffffffffffffffffff16148015610c2857507f000000000000000000000000000000000000000000000000000000000000000046145b15610c55577f00000000000000000000000000000000000000000000000000000000000000009050610c60565b610c5d61203d565b90505b90565b600080610c6e611a5b565b9050610d02818585600360008673ffffffffffffffffffffffffffffffffffffffff1673ffffffffffffffffffffffffffffffffffffffff16815260200190815260200160002060008973ffffffffffffffffffffffffffffffffffffffff1673ffffffffffffffffffffffffffffffffffffffff16815260200190815260200160002054610cfd9190613e20565b611a63565b600191505092915050565b6000438210610d51576040517f08c379a0000000000000000000000000000000000000000000000000000000008152600401610d4890613ea0565b60405180910390fd5b610d99600960008573ffffffffffffffffffffffffffffffffffffffff1673ffffffffffffffffffffffffffffffffffffffff168152602001908152602001600020836120c1565b905092915050565b80610db2610dad611a5b565b610f73565b1015610df3576040517f08c379a0000000000000000000000000000000000000000000000000000000008152600401610dea90613f0c565b60405180910390fd5b610dfd33826121cd565b50565b610e086121eb565b610e47576040517f08c379a0000000000000000000000000000000000000000000000000000000008152600401610e3e90613f78565b60405180910390fd5b60008103610e8a576040517f08c379a0000000000000000000000000000000000000000000000000000000008152600401610e8190613fe4565b60405180910390fd5b610e948282612228565b5050565b6000819050919050565b6000600860008373ffffffffffffffffffffffffffffffffffffffff1673ffffffffffffffffffffffffffffffffffffffff16815260200190815260200160002060009054906101000a900473ffffffffffffffffffffffffffffffffffffffff169050919050565b610f1c610f16611a5b565b826122b5565b50565b6000610f6c600960008473ffffffffffffffffffffffffffffffffffffffff1673ffffffffffffffffffffffffffffffffffffffff168152602001908152602001600020805490506123cf565b9050919050565b6000600260008373ffffffffffffffffffffffffffffffffffffffff1673ffffffffffffffffffffffffffffffffffffffff168152602001908152602001600020549050919050565b60006001905090565b610fcd612422565b61100c576040517f08c379a000000000000000000000000000000000000000000000000000000000815260040161100390614050565b60405180910390fd5b8061101683610f73565b1015611057576040517f08c379a000000000000000000000000000000000000000000000000000000000815260040161104e90613f0c565b60405180910390fd5b6000816110648433611836565b61106e9190614070565b905061107c83336000611a63565b611087833383611a63565b61109183836121cd565b505050565b60006110df600760008473ffffffffffffffffffffffffffffffffffffffff1673ffffffffffffffffffffffffffffffffffffffff16815260200190815260200160002061245f565b9050919050565b60006001905090565b6000600160009054906101000a900473ffffffffffffffffffffffffffffffffffffffff16905090565b600043821061115d576040517f08c379a000000000000000000000000000000000000000000000000000000000815260040161115490613ea0565b60405180910390fd5b611168600a836120c1565b9050919050565b61117761246d565b6111b6576040517f08c379a00000000000000000000000000000000000000000000000000000000081526004016111ad90613dd1565b60405180910390fd5b6111bf816124aa565b50565b6060600680546111d190613d54565b80601f01602080910402602001604051908101604052809291908181526020018280546111fd90613d54565b801561124a5780601f1061121f5761010080835404028352916020019161124a565b820191906000526020600020905b81548152906001019060200180831161122d57829003601f168201915b5050505050905090565b60006001905090565b600080600960008473ffffffffffffffffffffffffffffffffffffffff1673ffffffffffffffffffffffffffffffffffffffff1681526020019081526020016000208054905090506000811461134557600960008473ffffffffffffffffffffffffffffffffffffffff1673ffffffffffffffffffffffffffffffffffffffff1681526020019081526020016000206001826112f99190614070565b8154811061130a576113096140a4565b5b9060005260206000200160000160049054906101000a90047bffffffffffffffffffffffffffffffffffffffffffffffffffffffff16611348565b60005b7bffffffffffffffffffffffffffffffffffffffffffffffffffffffff16915050919050565b60006001905090565b600080611382611a5b565b90506000600360008373ffffffffffffffffffffffffffffffffffffffff1673ffffffffffffffffffffffffffffffffffffffff16815260200190815260200160002060008673ffffffffffffffffffffffffffffffffffffffff1673ffffffffffffffffffffffffffffffffffffffff16815260200190815260200160002054905083811015611448576040517f08c379a000000000000000000000000000000000000000000000000000000000815260040161143f90614145565b60405180910390fd5b6114558286868403611a63565b60019250505092915050565b60008061146c611a5b565b9050611479818585611dbb565b600191505092915050565b60608282905067ffffffffffffffff8111156114a3576114a2613708565b5b6040519080825280602002602001820160405280156114d657816020015b60608152602001906001900390816114c15790505b50905060005b8383905081101561158957611558308585848181106114fe576114fd6140a4565b5b90506020028101906115109190614174565b8080601f016020809104026020016040519081016040528093929190818152602001838380828437600081840152601f19601f82011690508083019250505050505050612585565b82828151811061156b5761156a6140a4565b5b60200260200101819052508080611581906141d7565b9150506114dc565b5092915050565b60006001905090565b834211156115dc576040517f08c379a00000000000000000000000000000000000000000000000000000000081526004016115d39061426b565b60405180910390fd5b60007fe48329057bfd03d55e49b547132e39cffd9c1820ad7b9d4c5307691425d15adf878787604051602001611615949392919061428b565b604051602081830303815290604052805190602001209050600061164061163a610bac565b836125b2565b90506000611650828787876125f3565b905061165b8161261e565b881461169c576040517f08c379a00000000000000000000000000000000000000000000000000000000081526004016116939061431c565b60405180910390fd5b6116a6818a6122b5565b505050505050505050565b6000819050919050565b60007f566f746545524332300000000000000000000000000000000000000000000000905090565b60006001905090565b8342111561172f576040517f08c379a000000000000000000000000000000000000000000000000000000000815260040161172690614388565b60405180910390fd5b60007f000000000000000000000000000000000000000000000000000000000000000088888861175e8c61261e565b89604051602001611774969594939291906143a8565b604051602081830303815290604052805190602001209050600061179f611799610bac565b836125b2565b905060006117af828787876125f3565b90508973ffffffffffffffffffffffffffffffffffffffff168173ffffffffffffffffffffffffffffffffffffffff161461181f576040517f08c379a000000000000000000000000000000000000000000000000000000000815260040161181690614455565b60405180910390fd5b61182a8a8a8a611a63565b50505050505050505050565b6000600360008473ffffffffffffffffffffffffffffffffffffffff1673ffffffffffffffffffffffffffffffffffffffff16815260200190815260200160002060008373ffffffffffffffffffffffffffffffffffffffff1673ffffffffffffffffffffffffffffffffffffffff16815260200190815260200160002054905092915050565b600080546118ca90613d54565b80601f01602080910402602001604051908101604052809291908181526020018280546118f690613d54565b80156119435780601f1061191857610100808354040283529160200191611943565b820191906000526020600020905b81548152906001019060200180831161192657829003601f168201915b505050505081565b6119536132f0565b600960008473ffffffffffffffffffffffffffffffffffffffff1673ffffffffffffffffffffffffffffffffffffffff1681526020019081526020016000208263ffffffff16815481106119aa576119a96140a4565b5b906000526020600020016040518060400160405290816000820160009054906101000a900463ffffffff1663ffffffff1663ffffffff1681526020016000820160049054906101000a90047bffffffffffffffffffffffffffffffffffffffffffffffffffffffff167bffffffffffffffffffffffffffffffffffffffffffffffffffffffff167bffffffffffffffffffffffffffffffffffffffffffffffffffffffff1681525050905092915050565b600033905090565b600073ffffffffffffffffffffffffffffffffffffffff168373ffffffffffffffffffffffffffffffffffffffff1603611ad2576040517f08c379a0000000000000000000000000000000000000000000000000000000008152600401611ac9906144e7565b60405180910390fd5b600073ffffffffffffffffffffffffffffffffffffffff168273ffffffffffffffffffffffffffffffffffffffff1603611b41576040517f08c379a0000000000000000000000000000000000000000000000000000000008152600401611b3890614579565b60405180910390fd5b80600360008573ffffffffffffffffffffffffffffffffffffffff1673ffffffffffffffffffffffffffffffffffffffff16815260200190815260200160002060008473ffffffffffffffffffffffffffffffffffffffff1673ffffffffffffffffffffffffffffffffffffffff168152602001908152602001600020819055508173ffffffffffffffffffffffffffffffffffffffff168373ffffffffffffffffffffffffffffffffffffffff167f8c5be1e5ebec7d5bd14f71427d1e84f3dd0314c0f7b2291e5b200ac8c7c3b92583604051611c1f91906135d0565b60405180910390a3505050565b6000611c366110ef565b73ffffffffffffffffffffffffffffffffffffffff163373ffffffffffffffffffffffffffffffffffffffff1614905090565b6000600160009054906101000a900473ffffffffffffffffffffffffffffffffffffffff16905081600160006101000a81548173ffffffffffffffffffffffffffffffffffffffff021916908373ffffffffffffffffffffffffffffffffffffffff1602179055508173ffffffffffffffffffffffffffffffffffffffff168173ffffffffffffffffffffffffffffffffffffffff167f8292fce18fa69edf4db7b94ea2e58241df0ae57f97e0a6c9b29067028bf92d7660405160405180910390a35050565b6000611d3b8484611836565b90507fffffffffffffffffffffffffffffffffffffffffffffffffffffffffffffffff8114611db55781811015611da7576040517f08c379a0000000000000000000000000000000000000000000000000000000008152600401611d9e906145e5565b60405180910390fd5b611db48484848403611a63565b5b50505050565b600073ffffffffffffffffffffffffffffffffffffffff168373ffffffffffffffffffffffffffffffffffffffff1603611e2a576040517f08c379a0000000000000000000000000000000000000000000000000000000008152600401611e2190614677565b60405180910390fd5b600073ffffffffffffffffffffffffffffffffffffffff168273ffffffffffffffffffffffffffffffffffffffff1603611e99576040517f08c379a0000000000000000000000000000000000000000000000000000000008152600401611e9090614709565b60405180910390fd5b611ea483838361267c565b6000600260008573ffffffffffffffffffffffffffffffffffffffff1673ffffffffffffffffffffffffffffffffffffffff16815260200190815260200160002054905081811015611f2b576040517f08c379a0000000000000000000000000000000000000000000000000000000008152600401611f229061479b565b60405180910390fd5b818103600260008673ffffffffffffffffffffffffffffffffffffffff1673ffffffffffffffffffffffffffffffffffffffff1681526020019081526020016000208190555081600260008573ffffffffffffffffffffffffffffffffffffffff1673ffffffffffffffffffffffffffffffffffffffff1681526020019081526020016000206000828254611fc09190613e20565b925050819055508273ffffffffffffffffffffffffffffffffffffffff168473ffffffffffffffffffffffffffffffffffffffff167fddf252ad1be2c89b69c2b068fc378daa952ba7f163c4a11628f55a4df523b3ef8460405161202491906135d0565b60405180910390a3612037848484612681565b50505050565b60007f8b73c3c69bb8fe3d512ecc4cf759cc79239f7b179b0ffacaa9a75d522b39400f61206861097b565b805190602001207fc89efdaa54c0f20c7adf612882df0950f5a951637e0307cdcb4c672f298b8bc646306040516020016120a69594939291906147bb565b60405160208183030381529060405280519060200120905090565b6000808380549050905060005b818110156121405760006120e282846126ac565b9050848682815481106120f8576120f76140a4565b5b9060005260206000200160000160009054906101000a900463ffffffff1663ffffffff16111561212a5780925061213a565b6001816121379190613e20565b91505b506120ce565b600082146121a257846001836121569190614070565b81548110612167576121666140a4565b5b9060005260206000200160000160049054906101000a90047bffffffffffffffffffffffffffffffffffffffffffffffffffffffff166121a5565b60005b7bffffffffffffffffffffffffffffffffffffffffffffffffffffffff169250505092915050565b6121d782826126d2565b6121e5600a6128aa836128c0565b50505050565b60006121f56110ef565b73ffffffffffffffffffffffffffffffffffffffff163373ffffffffffffffffffffffffffffffffffffffff1614905090565b6122328282612b38565b61223a612c98565b7bffffffffffffffffffffffffffffffffffffffffffffffffffffffff16612260610a83565b11156122a1576040517f08c379a000000000000000000000000000000000000000000000000000000000815260040161229890614880565b60405180910390fd5b6122af600a612cbc836128c0565b50505050565b60006122c083610ea2565b905060006122cd84610f73565b905082600860008673ffffffffffffffffffffffffffffffffffffffff1673ffffffffffffffffffffffffffffffffffffffff16815260200190815260200160002060006101000a81548173ffffffffffffffffffffffffffffffffffffffff021916908373ffffffffffffffffffffffffffffffffffffffff1602179055508273ffffffffffffffffffffffffffffffffffffffff168273ffffffffffffffffffffffffffffffffffffffff168573ffffffffffffffffffffffffffffffffffffffff167f3134e8a2e6d97e929a7e54011ea5485d7d196dd5f0ba4d4ef95803e8e3fc257f60405160405180910390a46123c9828483612cd2565b50505050565b600063ffffffff801682111561241a576040517f08c379a000000000000000000000000000000000000000000000000000000000815260040161241190614912565b60405180910390fd5b819050919050565b600061242c6110ef565b73ffffffffffffffffffffffffffffffffffffffff163373ffffffffffffffffffffffffffffffffffffffff1614905090565b600081600001549050919050565b60006124776110ef565b73ffffffffffffffffffffffffffffffffffffffff163373ffffffffffffffffffffffffffffffffffffffff1614905090565b60008080546124b890613d54565b80601f01602080910402602001604051908101604052809291908181526020018280546124e490613d54565b80156125315780601f1061250657610100808354040283529160200191612531565b820191906000526020600020905b81548152906001019060200180831161251457829003601f168201915b5050505050905081600090816125479190614ade565b507fc9c7c3fe08b88b4df9d4d47ef47d2c43d55c025a0ba88ca442580ed9e7348a168183604051612579929190614bb0565b60405180910390a15050565b60606125aa838360405180606001604052806027815260200161515660279139612ecb565b905092915050565b60006040517f190100000000000000000000000000000000000000000000000000000000000081528360028201528260228201526042812091505092915050565b600080600061260487878787612f98565b915091506126118161307a565b8192505050949350505050565b600080600760008473ffffffffffffffffffffffffffffffffffffffff1673ffffffffffffffffffffffffffffffffffffffff168152602001908152602001600020905061266b8161245f565b9150612676816131e0565b50919050565b505050565b61268c8383836131f6565b6126a761269884610ea2565b6126a184610ea2565b83612cd2565b505050565b600060028284186126bd9190614c16565b8284166126ca9190613e20565b905092915050565b600073ffffffffffffffffffffffffffffffffffffffff168273ffffffffffffffffffffffffffffffffffffffff1603612741576040517f08c379a000000000000000000000000000000000000000000000000000000000815260040161273890614cb9565b60405180910390fd5b61274d8260008361267c565b6000600260008473ffffffffffffffffffffffffffffffffffffffff1673ffffffffffffffffffffffffffffffffffffffff168152602001908152602001600020549050818110156127d4576040517f08c379a00000000000000000000000000000000000000000000000000000000081526004016127cb90614d4b565b60405180910390fd5b818103600260008573ffffffffffffffffffffffffffffffffffffffff1673ffffffffffffffffffffffffffffffffffffffff16815260200190815260200160002081905550816004600082825461282c9190614070565b92505081905550600073ffffffffffffffffffffffffffffffffffffffff168373ffffffffffffffffffffffffffffffffffffffff167fddf252ad1be2c89b69c2b068fc378daa952ba7f163c4a11628f55a4df523b3ef8460405161289191906135d0565b60405180910390a36128a583600084612681565b505050565b600081836128b89190614070565b905092915050565b6000806000858054905090506000811461292e57856001826128e29190614070565b815481106128f3576128f26140a4565b5b9060005260206000200160000160049054906101000a90047bffffffffffffffffffffffffffffffffffffffffffffffffffffffff16612931565b60005b7bffffffffffffffffffffffffffffffffffffffffffffffffffffffff16925061295f83858763ffffffff16565b91506000811180156129b25750438660018361297b9190614070565b8154811061298c5761298b6140a4565b5b9060005260206000200160000160009054906101000a900463ffffffff1663ffffffff16145b15612a3f576129c0826131fb565b866001836129ce9190614070565b815481106129df576129de6140a4565b5b9060005260206000200160000160046101000a8154817bffffffffffffffffffffffffffffffffffffffffffffffffffffffff02191690837bffffffffffffffffffffffffffffffffffffffffffffffffffffffff160217905550612b2f565b856040518060400160405280612a54436123cf565b63ffffffff168152602001612a68856131fb565b7bffffffffffffffffffffffffffffffffffffffffffffffffffffffff168152509080600181540180825580915050600190039060005260206000200160009091909190915060008201518160000160006101000a81548163ffffffff021916908363ffffffff16021790555060208201518160000160046101000a8154817bffffffffffffffffffffffffffffffffffffffffffffffffffffffff02191690837bffffffffffffffffffffffffffffffffffffffffffffffffffffffff16021790555050505b50935093915050565b600073ffffffffffffffffffffffffffffffffffffffff168273ffffffffffffffffffffffffffffffffffffffff1603612ba7576040517f08c379a0000000000000000000000000000000000000000000000000000000008152600401612b9e90614db7565b60405180910390fd5b612bb36000838361267c565b8060046000828254612bc59190613e20565b9250508190555080600260008473ffffffffffffffffffffffffffffffffffffffff1673ffffffffffffffffffffffffffffffffffffffff1681526020019081526020016000206000828254612c1b9190613e20565b925050819055508173ffffffffffffffffffffffffffffffffffffffff16600073ffffffffffffffffffffffffffffffffffffffff167fddf252ad1be2c89b69c2b068fc378daa952ba7f163c4a11628f55a4df523b3ef83604051612c8091906135d0565b60405180910390a3612c9460008383612681565b5050565b60007bffffffffffffffffffffffffffffffffffffffffffffffffffffffff905090565b60008183612cca9190613e20565b905092915050565b8173ffffffffffffffffffffffffffffffffffffffff168373ffffffffffffffffffffffffffffffffffffffff1614158015612d0e5750600081115b15612ec657600073ffffffffffffffffffffffffffffffffffffffff168373ffffffffffffffffffffffffffffffffffffffff1614612dec57600080612d95600960008773ffffffffffffffffffffffffffffffffffffffff1673ffffffffffffffffffffffffffffffffffffffff1681526020019081526020016000206128aa856128c0565b915091508473ffffffffffffffffffffffffffffffffffffffff167fdec2bacdd2f05b59de34da9b523dff8be42e5e38e818c82fdb0bae774387a7248383604051612de1929190614dd7565b60405180910390a250505b600073ffffffffffffffffffffffffffffffffffffffff168273ffffffffffffffffffffffffffffffffffffffff1614612ec557600080612e6e600960008673ffffffffffffffffffffffffffffffffffffffff1673ffffffffffffffffffffffffffffffffffffffff168152602001908152602001600020612cbc856128c0565b915091508373ffffffffffffffffffffffffffffffffffffffff167fdec2bacdd2f05b59de34da9b523dff8be42e5e38e818c82fdb0bae774387a7248383604051612eba929190614dd7565b60405180910390a250505b5b505050565b6060612ed684613266565b612f15576040517f08c379a0000000000000000000000000000000000000000000000000000000008152600401612f0c90614e72565b60405180910390fd5b6000808573ffffffffffffffffffffffffffffffffffffffff1685604051612f3d9190614ece565b600060405180830381855af49150503d8060008114612f78576040519150601f19603f3d011682016040523d82523d6000602084013e612f7d565b606091505b5091509150612f8d828286613289565b925050509392505050565b6000807f7fffffffffffffffffffffffffffffff5d576e7357a4501ddfe92f46681b20a08360001c1115612fd3576000600391509150613071565b600060018787878760405160008152602001604052604051612ff89493929190614ee5565b6020604051602081039080840390855afa15801561301a573d6000803e3d6000fd5b505050602060405103519050600073ffffffffffffffffffffffffffffffffffffffff168173ffffffffffffffffffffffffffffffffffffffff160361306857600060019250925050613071565b80600092509250505b94509492505050565b6000600481111561308e5761308d614f2a565b5b8160048111156130a1576130a0614f2a565b5b03156131dd57600160048111156130bb576130ba614f2a565b5b8160048111156130ce576130cd614f2a565b5b0361310e576040517f08c379a000000000000000000000000000000000000000000000000000000000815260040161310590614fa5565b60405180910390fd5b6002600481111561312257613121614f2a565b5b81600481111561313557613134614f2a565b5b03613175576040517f08c379a000000000000000000000000000000000000000000000000000000000815260040161316c90615011565b60405180910390fd5b6003600481111561318957613188614f2a565b5b81600481111561319c5761319b614f2a565b5b036131dc576040517f08c379a00000000000000000000000000000000000000000000000000000000081526004016131d3906150a3565b60405180910390fd5b5b50565b6001816000016000828254019250508190555050565b505050565b60007bffffffffffffffffffffffffffffffffffffffffffffffffffffffff801682111561325e576040517f08c379a000000000000000000000000000000000000000000000000000000000815260040161325590615135565b60405180910390fd5b819050919050565b6000808273ffffffffffffffffffffffffffffffffffffffff163b119050919050565b60608315613299578290506132e9565b6000835111156132ac5782518084602001fd5b816040517f08c379a00000000000000000000000000000000000000000000000000000000081526004016132e091906134df565b60405180910390fd5b9392505050565b6040518060400160405280600063ffffffff16815260200160007bffffffffffffffffffffffffffffffffffffffffffffffffffffffff1681525090565b6000604051905090565b600080fd5b600080fd5b6000819050919050565b61335581613342565b811461336057600080fd5b50565b6000813590506133728161334c565b92915050565b60006020828403121561338e5761338d613338565b5b600061339c84828501613363565b91505092915050565b6133ae81613342565b82525050565b600073ffffffffffffffffffffffffffffffffffffffff82169050919050565b60006133df826133b4565b9050919050565b6133ef816133d4565b82525050565b600081519050919050565b600082825260208201905092915050565b60005b8381101561342f578082015181840152602081019050613414565b60008484015250505050565b6000601f19601f8301169050919050565b6000613457826133f5565b6134618185613400565b9350613471818560208601613411565b61347a8161343b565b840191505092915050565b600060a08201905061349a60008301886133a5565b6134a760208301876133e6565b6134b460408301866133a5565b6134c160608301856133a5565b81810360808301526134d3818461344c565b90509695505050505050565b600060208201905081810360008301526134f9818461344c565b905092915050565b61350a816133d4565b811461351557600080fd5b50565b60008135905061352781613501565b92915050565b6000806040838503121561354457613543613338565b5b600061355285828601613518565b925050602061356385828601613363565b9150509250929050565b60008115159050919050565b6135828161356d565b82525050565b600060208201905061359d6000830184613579565b92915050565b6000602082840312156135b9576135b8613338565b5b60006135c784828501613518565b91505092915050565b60006020820190506135e560008301846133a5565b92915050565b600060ff82169050919050565b613601816135eb565b82525050565b600060208201905061361c60008301846135f8565b92915050565b60008060006060848603121561363b5761363a613338565b5b600061364986828701613518565b935050602061365a86828701613518565b925050604061366b86828701613363565b9150509250925092565b6000819050919050565b61368881613675565b82525050565b60006020820190506136a3600083018461367f565b92915050565b60006020820190506136be60008301846133e6565b92915050565b600063ffffffff82169050919050565b6136dd816136c4565b82525050565b60006020820190506136f860008301846136d4565b92915050565b600080fd5b600080fd5b7f4e487b7100000000000000000000000000000000000000000000000000000000600052604160045260246000fd5b6137408261343b565b810181811067ffffffffffffffff8211171561375f5761375e613708565b5b80604052505050565b600061377261332e565b905061377e8282613737565b919050565b600067ffffffffffffffff82111561379e5761379d613708565b5b6137a78261343b565b9050602081019050919050565b82818337600083830152505050565b60006137d66137d184613783565b613768565b9050828152602081018484840111156137f2576137f1613703565b5b6137fd8482856137b4565b509392505050565b600082601f83011261381a576138196136fe565b5b813561382a8482602086016137c3565b91505092915050565b60006020828403121561384957613848613338565b5b600082013567ffffffffffffffff8111156138675761386661333d565b5b61387384828501613805565b91505092915050565b600080fd5b600080fd5b60008083601f84011261389c5761389b6136fe565b5b8235905067ffffffffffffffff8111156138b9576138b861387c565b5b6020830191508360208202830111156138d5576138d4613881565b5b9250929050565b600080602083850312156138f3576138f2613338565b5b600083013567ffffffffffffffff8111156139115761391061333d565b5b61391d85828601613886565b92509250509250929050565b600081519050919050565b600082825260208201905092915050565b6000819050602082019050919050565b600081519050919050565b600082825260208201905092915050565b600061397c82613955565b6139868185613960565b9350613996818560208601613411565b61399f8161343b565b840191505092915050565b60006139b68383613971565b905092915050565b6000602082019050919050565b60006139d682613929565b6139e08185613934565b9350836020820285016139f285613945565b8060005b85811015613a2e5784840389528151613a0f85826139aa565b9450613a1a836139be565b925060208a019950506001810190506139f6565b50829750879550505050505092915050565b60006020820190508181036000830152613a5a81846139cb565b905092915050565b613a6b816135eb565b8114613a7657600080fd5b50565b600081359050613a8881613a62565b92915050565b613a9781613675565b8114613aa257600080fd5b50565b600081359050613ab481613a8e565b92915050565b60008060008060008060c08789031215613ad757613ad6613338565b5b6000613ae589828a01613518565b9650506020613af689828a01613363565b9550506040613b0789828a01613363565b9450506060613b1889828a01613a79565b9350506080613b2989828a01613aa5565b92505060a0613b3a89828a01613aa5565b9150509295509295509295565b600080600080600080600060e0888a031215613b6657613b65613338565b5b6000613b748a828b01613518565b9750506020613b858a828b01613518565b9650506040613b968a828b01613363565b9550506060613ba78a828b01613363565b9450506080613bb88a828b01613a79565b93505060a0613bc98a828b01613aa5565b92505060c0613bda8a828b01613aa5565b91505092959891949750929550565b60008060408385031215613c0057613bff613338565b5b6000613c0e85828601613518565b9250506020613c1f85828601613518565b9150509250929050565b613c32816136c4565b8114613c3d57600080fd5b50565b600081359050613c4f81613c29565b92915050565b60008060408385031215613c6c57613c6b613338565b5b6000613c7a85828601613518565b9250506020613c8b85828601613c40565b9150509250929050565b613c9e816136c4565b82525050565b60007bffffffffffffffffffffffffffffffffffffffffffffffffffffffff82169050919050565b613cd581613ca4565b82525050565b604082016000820151613cf16000850182613c95565b506020820151613d046020850182613ccc565b50505050565b6000604082019050613d1f6000830184613cdb565b92915050565b7f4e487b7100000000000000000000000000000000000000000000000000000000600052602260045260246000fd5b60006002820490506001821680613d6c57607f821691505b602082108103613d7f57613d7e613d25565b5b50919050565b7f4e6f7420617574686f72697a6564000000000000000000000000000000000000600082015250565b6000613dbb600e83613400565b9150613dc682613d85565b602082019050919050565b60006020820190508181036000830152613dea81613dae565b9050919050565b7f4e487b7100000000000000000000000000000000000000000000000000000000600052601160045260246000fd5b6000613e2b82613342565b9150613e3683613342565b9250828201905080821115613e4e57613e4d613df1565b5b92915050565b7f4552433230566f7465733a20626c6f636b206e6f7420796574206d696e656400600082015250565b6000613e8a601f83613400565b9150613e9582613e54565b602082019050919050565b60006020820190508181036000830152613eb981613e7d565b9050919050565b7f6e6f7420656e6f7567682062616c616e63650000000000000000000000000000600082015250565b6000613ef6601283613400565b9150613f0182613ec0565b602082019050919050565b60006020820190508181036000830152613f2581613ee9565b9050919050565b7f4e6f7420617574686f72697a656420746f206d696e742e000000000000000000600082015250565b6000613f62601783613400565b9150613f6d82613f2c565b602082019050919050565b60006020820190508181036000830152613f9181613f55565b9050919050565b7f4d696e74696e67207a65726f20746f6b656e732e000000000000000000000000600082015250565b6000613fce601483613400565b9150613fd982613f98565b602082019050919050565b60006020820190508181036000830152613ffd81613fc1565b9050919050565b7f4e6f7420617574686f72697a656420746f206275726e2e000000000000000000600082015250565b600061403a601783613400565b915061404582614004565b602082019050919050565b600060208201905081810360008301526140698161402d565b9050919050565b600061407b82613342565b915061408683613342565b925082820390508181111561409e5761409d613df1565b5b92915050565b7f4e487b7100000000000000000000000000000000000000000000000000000000600052603260045260246000fd5b7f45524332303a2064656372656173656420616c6c6f77616e63652062656c6f7760008201527f207a65726f000000000000000000000000000000000000000000000000000000602082015250565b600061412f602583613400565b915061413a826140d3565b604082019050919050565b6000602082019050818103600083015261415e81614122565b9050919050565b600080fd5b600080fd5b600080fd5b6000808335600160200384360303811261419157614190614165565b5b80840192508235915067ffffffffffffffff8211156141b3576141b261416a565b5b6020830192506001820236038313156141cf576141ce61416f565b5b509250929050565b60006141e282613342565b91507fffffffffffffffffffffffffffffffffffffffffffffffffffffffffffffffff820361421457614213613df1565b5b600182019050919050565b7f4552433230566f7465733a207369676e61747572652065787069726564000000600082015250565b6000614255601d83613400565b91506142608261421f565b602082019050919050565b6000602082019050818103600083015261428481614248565b9050919050565b60006080820190506142a0600083018761367f565b6142ad60208301866133e6565b6142ba60408301856133a5565b6142c760608301846133a5565b95945050505050565b7f4552433230566f7465733a20696e76616c6964206e6f6e636500000000000000600082015250565b6000614306601983613400565b9150614311826142d0565b602082019050919050565b60006020820190508181036000830152614335816142f9565b9050919050565b7f45524332305065726d69743a206578706972656420646561646c696e65000000600082015250565b6000614372601d83613400565b915061437d8261433c565b602082019050919050565b600060208201905081810360008301526143a181614365565b9050919050565b600060c0820190506143bd600083018961367f565b6143ca60208301886133e6565b6143d760408301876133e6565b6143e460608301866133a5565b6143f160808301856133a5565b6143fe60a08301846133a5565b979650505050505050565b7f45524332305065726d69743a20696e76616c6964207369676e61747572650000600082015250565b600061443f601e83613400565b915061444a82614409565b602082019050919050565b6000602082019050818103600083015261446e81614432565b9050919050565b7f45524332303a20617070726f76652066726f6d20746865207a65726f2061646460008201527f7265737300000000000000000000000000000000000000000000000000000000602082015250565b60006144d1602483613400565b91506144dc82614475565b604082019050919050565b60006020820190508181036000830152614500816144c4565b9050919050565b7f45524332303a20617070726f766520746f20746865207a65726f20616464726560008201527f7373000000000000000000000000000000000000000000000000000000000000602082015250565b6000614563602283613400565b915061456e82614507565b604082019050919050565b6000602082019050818103600083015261459281614556565b9050919050565b7f45524332303a20696e73756666696369656e7420616c6c6f77616e6365000000600082015250565b60006145cf601d83613400565b91506145da82614599565b602082019050919050565b600060208201905081810360008301526145fe816145c2565b9050919050565b7f45524332303a207472616e736665722066726f6d20746865207a65726f20616460008201527f6472657373000000000000000000000000000000000000000000000000000000602082015250565b6000614661602583613400565b915061466c82614605565b604082019050919050565b6000602082019050818103600083015261469081614654565b9050919050565b7f45524332303a207472616e7366657220746f20746865207a65726f206164647260008201527f6573730000000000000000000000000000000000000000000000000000000000602082015250565b60006146f3602383613400565b91506146fe82614697565b604082019050919050565b60006020820190508181036000830152614722816146e6565b9050919050565b7f45524332303a207472616e7366657220616d6f756e742065786365656473206260008201527f616c616e63650000000000000000000000000000000000000000000000000000602082015250565b6000614785602683613400565b915061479082614729565b604082019050919050565b600060208201905081810360008301526147b481614778565b9050919050565b600060a0820190506147d0600083018861367f565b6147dd602083018761367f565b6147ea604083018661367f565b6147f760608301856133a5565b61480460808301846133e6565b9695505050505050565b7f4552433230566f7465733a20746f74616c20737570706c79207269736b73206f60008201527f766572666c6f77696e6720766f74657300000000000000000000000000000000602082015250565b600061486a603083613400565b91506148758261480e565b604082019050919050565b600060208201905081810360008301526148998161485d565b9050919050565b7f53616665436173743a2076616c756520646f65736e27742066697420696e203360008201527f3220626974730000000000000000000000000000000000000000000000000000602082015250565b60006148fc602683613400565b9150614907826148a0565b604082019050919050565b6000602082019050818103600083015261492b816148ef565b9050919050565b60008190508160005260206000209050919050565b60006020601f8301049050919050565b600082821b905092915050565b6000600883026149947fffffffffffffffffffffffffffffffffffffffffffffffffffffffffffffffff82614957565b61499e8683614957565b95508019841693508086168417925050509392505050565b6000819050919050565b60006149db6149d66149d184613342565b6149b6565b613342565b9050919050565b6000819050919050565b6149f5836149c0565b614a09614a01826149e2565b848454614964565b825550505050565b600090565b614a1e614a11565b614a298184846149ec565b505050565b5b81811015614a4d57614a42600082614a16565b600181019050614a2f565b5050565b601f821115614a9257614a6381614932565b614a6c84614947565b81016020851015614a7b578190505b614a8f614a8785614947565b830182614a2e565b50505b505050565b600082821c905092915050565b6000614ab560001984600802614a97565b1980831691505092915050565b6000614ace8383614aa4565b9150826002028217905092915050565b614ae7826133f5565b67ffffffffffffffff811115614b0057614aff613708565b5b614b0a8254613d54565b614b15828285614a51565b600060209050601f831160018114614b485760008415614b36578287015190505b614b408582614ac2565b865550614ba8565b601f198416614b5686614932565b60005b82811015614b7e57848901518255600182019150602085019450602081019050614b59565b86831015614b9b5784890151614b97601f891682614aa4565b8355505b6001600288020188555050505b505050505050565b60006040820190508181036000830152614bca818561344c565b90508181036020830152614bde818461344c565b90509392505050565b7f4e487b7100000000000000000000000000000000000000000000000000000000600052601260045260246000fd5b6000614c2182613342565b9150614c2c83613342565b925082614c3c57614c3b614be7565b5b828204905092915050565b7f45524332303a206275726e2066726f6d20746865207a65726f2061646472657360008201527f7300000000000000000000000000000000000000000000000000000000000000602082015250565b6000614ca3602183613400565b9150614cae82614c47565b604082019050919050565b60006020820190508181036000830152614cd281614c96565b9050919050565b7f45524332303a206275726e20616d6f756e7420657863656564732062616c616e60008201527f6365000000000000000000000000000000000000000000000000000000000000602082015250565b6000614d35602283613400565b9150614d4082614cd9565b604082019050919050565b60006020820190508181036000830152614d6481614d28565b9050919050565b7f45524332303a206d696e7420746f20746865207a65726f206164647265737300600082015250565b6000614da1601f83613400565b9150614dac82614d6b565b602082019050919050565b60006020820190508181036000830152614dd081614d94565b9050919050565b6000604082019050614dec60008301856133a5565b614df960208301846133a5565b9392505050565b7f416464726573733a2064656c65676174652063616c6c20746f206e6f6e2d636f60008201527f6e74726163740000000000000000000000000000000000000000000000000000602082015250565b6000614e5c602683613400565b9150614e6782614e00565b604082019050919050565b60006020820190508181036000830152614e8b81614e4f565b9050919050565b600081905092915050565b6000614ea882613955565b614eb28185614e92565b9350614ec2818560208601613411565b80840191505092915050565b6000614eda8284614e9d565b915081905092915050565b6000608082019050614efa600083018761367f565b614f0760208301866135f8565b614f14604083018561367f565b614f21606083018461367f565b95945050505050565b7f4e487b7100000000000000000000000000000000000000000000000000000000600052602160045260246000fd5b7f45434453413a20696e76616c6964207369676e61747572650000000000000000600082015250565b6000614f8f601883613400565b9150614f9a82614f59565b602082019050919050565b60006020820190508181036000830152614fbe81614f82565b9050919050565b7f45434453413a20696e76616c6964207369676e6174757265206c656e67746800600082015250565b6000614ffb601f83613400565b915061500682614fc5565b602082019050919050565b6000602082019050818103600083015261502a81614fee565b9050919050565b7f45434453413a20696e76616c6964207369676e6174757265202773272076616c60008201527f7565000000000000000000000000000000000000000000000000000000000000602082015250565b600061508d602283613400565b915061509882615031565b604082019050919050565b600060208201905081810360008301526150bc81615080565b9050919050565b7f53616665436173743a2076616c756520646f65736e27742066697420696e203260008201527f3234206269747300000000000000000000000000000000000000000000000000602082015250565b600061511f602783613400565b915061512a826150c3565b604082019050919050565b6000602082019050818103600083015261514e81615112565b905091905056fe416464726573733a206c6f772d6c6576656c2064656c65676174652063616c6c206661696c6564a2646970667358221220a478d4d16301c1227576fa3fa75239901cfddcfe76854f50ddea4430e124394664736f6c63430008140033",
  "linkReferences": {},
  "deployedLinkReferences": {}
}